{
  "contractName": "DataStorage",
  "abi": [
    {
      "inputs": [],
      "stateMutability": "nonpayable",
      "type": "constructor"
    },
    {
      "anonymous": false,
      "inputs": [
        {
          "indexed": true,
          "internalType": "address",
          "name": "deployer",
          "type": "address"
        },
        {
          "indexed": false,
          "internalType": "uint256",
          "name": "timestamp",
          "type": "uint256"
        },
        {
          "indexed": false,
          "internalType": "uint256",
          "name": "blockNumber",
          "type": "uint256"
        }
      ],
      "name": "ContractDeployed",
      "type": "event"
    },
    {
      "anonymous": false,
      "inputs": [
        {
          "indexed": true,
          "internalType": "address",
          "name": "user",
          "type": "address"
        },
        {
          "indexed": false,
          "internalType": "string",
          "name": "data",
          "type": "string"
        },
        {
          "indexed": false,
          "internalType": "uint256",
          "name": "timestamp",
          "type": "uint256"
        },
        {
          "indexed": false,
          "internalType": "string",
          "name": "dataType",
          "type": "string"
        },
        {
          "indexed": true,
          "internalType": "uint256",
          "name": "entryId",
          "type": "uint256"
        },
        {
          "indexed": false,
          "internalType": "uint256",
          "name": "blockNumber",
          "type": "uint256"
        },
        {
          "indexed": false,
          "internalType": "bytes32",
          "name": "dataHash",
          "type": "bytes32"
        }
      ],
      "name": "DataStored",
      "type": "event"
    },
    {
      "inputs": [
        {
          "internalType": "uint256",
          "name": "",
          "type": "uint256"
        }
      ],
      "name": "dataEntries",
      "outputs": [
        {
          "internalType": "address",
          "name": "user",
          "type": "address"
        },
        {
          "internalType": "string",
          "name": "data",
          "type": "string"
        },
        {
          "internalType": "uint256",
          "name": "timestamp",
          "type": "uint256"
        },
        {
          "internalType": "string",
          "name": "dataType",
          "type": "string"
        },
        {
          "internalType": "uint256",
          "name": "entryId",
          "type": "uint256"
        },
        {
          "internalType": "uint256",
          "name": "blockNumber",
          "type": "uint256"
        },
        {
          "internalType": "bytes32",
          "name": "dataHash",
          "type": "bytes32"
        }
      ],
      "stateMutability": "view",
      "type": "function",
      "constant": true
    },
    {
      "inputs": [],
      "name": "owner",
      "outputs": [
        {
          "internalType": "address",
          "name": "",
          "type": "address"
        }
      ],
      "stateMutability": "view",
      "type": "function",
      "constant": true
    },
    {
      "inputs": [
        {
          "internalType": "string",
          "name": "",
          "type": "string"
        },
        {
          "internalType": "uint256",
          "name": "",
          "type": "uint256"
        }
      ],
      "name": "typeEntries",
      "outputs": [
        {
          "internalType": "uint256",
          "name": "",
          "type": "uint256"
        }
      ],
      "stateMutability": "view",
      "type": "function",
      "constant": true
    },
    {
      "inputs": [
        {
          "internalType": "address",
          "name": "",
          "type": "address"
        },
        {
          "internalType": "uint256",
          "name": "",
          "type": "uint256"
        }
      ],
      "name": "userEntries",
      "outputs": [
        {
          "internalType": "uint256",
          "name": "",
          "type": "uint256"
        }
      ],
      "stateMutability": "view",
      "type": "function",
      "constant": true
    },
    {
      "inputs": [
        {
          "internalType": "string",
          "name": "data",
          "type": "string"
        },
        {
          "internalType": "string",
          "name": "dataType",
          "type": "string"
        }
      ],
      "name": "storeData",
      "outputs": [],
      "stateMutability": "nonpayable",
      "type": "function"
    },
    {
      "inputs": [],
      "name": "getDataCount",
      "outputs": [
        {
          "internalType": "uint256",
          "name": "",
          "type": "uint256"
        }
      ],
      "stateMutability": "view",
      "type": "function",
      "constant": true
    },
    {
      "inputs": [
        {
          "internalType": "address",
          "name": "user",
          "type": "address"
        }
      ],
      "name": "getUserDataCount",
      "outputs": [
        {
          "internalType": "uint256",
          "name": "",
          "type": "uint256"
        }
      ],
      "stateMutability": "view",
      "type": "function",
      "constant": true
    },
    {
      "inputs": [
        {
          "internalType": "string",
          "name": "dataType",
          "type": "string"
        }
      ],
      "name": "getDataByType",
      "outputs": [
        {
          "internalType": "uint256[]",
          "name": "",
          "type": "uint256[]"
        }
      ],
      "stateMutability": "view",
      "type": "function",
      "constant": true
    },
    {
      "inputs": [
        {
          "internalType": "address",
          "name": "user",
          "type": "address"
        }
      ],
      "name": "getUserEntries",
      "outputs": [
        {
          "internalType": "uint256[]",
          "name": "",
          "type": "uint256[]"
        }
      ],
      "stateMutability": "view",
      "type": "function",
      "constant": true
    },
    {
      "inputs": [
        {
          "internalType": "uint256",
          "name": "entryId",
          "type": "uint256"
        }
      ],
      "name": "getEntry",
      "outputs": [
        {
          "components": [
            {
              "internalType": "address",
              "name": "user",
              "type": "address"
            },
            {
              "internalType": "string",
              "name": "data",
              "type": "string"
            },
            {
              "internalType": "uint256",
              "name": "timestamp",
              "type": "uint256"
            },
            {
              "internalType": "string",
              "name": "dataType",
              "type": "string"
            },
            {
              "internalType": "uint256",
              "name": "entryId",
              "type": "uint256"
            },
            {
              "internalType": "uint256",
              "name": "blockNumber",
              "type": "uint256"
            },
            {
              "internalType": "bytes32",
              "name": "dataHash",
              "type": "bytes32"
            }
          ],
          "internalType": "struct DataStorage.DataEntry",
          "name": "",
          "type": "tuple"
        }
      ],
      "stateMutability": "view",
      "type": "function",
      "constant": true
    },
    {
      "inputs": [
        {
          "internalType": "uint256",
          "name": "count",
          "type": "uint256"
        }
      ],
      "name": "getLatestEntries",
      "outputs": [
        {
          "components": [
            {
              "internalType": "address",
              "name": "user",
              "type": "address"
            },
            {
              "internalType": "string",
              "name": "data",
              "type": "string"
            },
            {
              "internalType": "uint256",
              "name": "timestamp",
              "type": "uint256"
            },
            {
              "internalType": "string",
              "name": "dataType",
              "type": "string"
            },
            {
              "internalType": "uint256",
              "name": "entryId",
              "type": "uint256"
            },
            {
              "internalType": "uint256",
              "name": "blockNumber",
              "type": "uint256"
            },
            {
              "internalType": "bytes32",
              "name": "dataHash",
              "type": "bytes32"
            }
          ],
          "internalType": "struct DataStorage.DataEntry[]",
          "name": "",
          "type": "tuple[]"
        }
      ],
      "stateMutability": "view",
      "type": "function",
      "constant": true
    }
  ],
  "bytecode": "0x608060405234801561001057600080fd5b5060038054600160a060020a03191633908117909155604080514281524360208201527f841dc6a6c60372f7a25ab4e5cb947a19940954c4364b1badbc999dc6f5704868910160405180910390a26112978061006d6000396000f3fe608060405234801561001057600080fd5b50600436106100c6576000357c010000000000000000000000000000000000000000000000000000000090048063647f94a51161008e578063647f94a51461016c5780637355a424146101955780638da5cb5b1461019d578063904181d0146101c8578063a0a8cca8146101db578063bae78d7b146101ee57600080fd5b80630b913af0146100cb578063325f4658146100f157806332b011d9146101175780633d813822146101375780634ece5b4c14610157575b600080fd5b6100de6100d9366004610c30565b61020e565b6040519081526020015b60405180910390f35b6101046100ff366004610c5a565b61023f565b6040516100e89796959493929190610cc3565b61012a610125366004610dc3565b6103a7565b6040516100e89190610e00565b61014a610145366004610c5a565b610417565b6040516100e89190610eba565b61016a610165366004610f1b565b6106be565b005b6100de61017a366004610f7f565b600160a060020a031660009081526001602052604090205490565b6000546100de565b6003546101b090600160a060020a031681565b604051600160a060020a0390911681526020016100e8565b61012a6101d6366004610f7f565b610944565b6100de6101e9366004610fa1565b6109ae565b6102016101fc366004610c5a565b6109d9565b6040516100e89190610fe6565b6001602052816000526040600020818154811061022a57600080fd5b90600052602060002001600091509150505481565b6000818154811061024f57600080fd5b600091825260209091206007909102018054600182018054600160a060020a0390921693509061027e90610ff9565b80601f01602080910402602001604051908101604052809291908181526020018280546102aa90610ff9565b80156102f75780601f106102cc576101008083540402835291602001916102f7565b820191906000526020600020905b8154815290600101906020018083116102da57829003601f168201915b50505050509080600201549080600301805461031290610ff9565b80601f016020809104026020016040519081016040528092919081815260200182805461033e90610ff9565b801561038b5780601f106103605761010080835404028352916020019161038b565b820191906000526020600020905b81548152906001019060200180831161036e57829003601f168201915b5050505050908060040154908060050154908060060154905087565b60606002826040516103b99190611036565b908152604080519182900360209081018320805480830285018301909352828452919083018282801561040b57602002820191906000526020600020905b8154815260200190600101908083116103f7575b50505050509050919050565b6060600082116104715760405160e560020a62461bcd02815260206004820152601c60248201527f436f756e74206d7573742062652067726561746572207468616e20300000000060448201526064015b60405180910390fd5b60005480831115610480578092505b60008367ffffffffffffffff81111561049b5761049b610d1d565b6040519080825280602002602001820160405280156104d457816020015b6104c1610bcb565b8152602001906001900390816104b95790505b50905060005b848110156106b6576000816104f060018661106b565b6104fa919061106b565b8154811061050a5761050a611084565b60009182526020918290206040805160e081019091526007909202018054600160a060020a03168252600181018054929391929184019161054a90610ff9565b80601f016020809104026020016040519081016040528092919081815260200182805461057690610ff9565b80156105c35780601f10610598576101008083540402835291602001916105c3565b820191906000526020600020905b8154815290600101906020018083116105a657829003601f168201915b50505050508152602001600282015481526020016003820180546105e690610ff9565b80601f016020809104026020016040519081016040528092919081815260200182805461061290610ff9565b801561065f5780601f106106345761010080835404028352916020019161065f565b820191906000526020600020905b81548152906001019060200180831161064257829003601f168201915b50505050508152602001600482015481526020016005820154815260200160068201548152505082828151811061069857610698611084565b602002602001018190525080806106ae9061109d565b9150506104da565b509392505050565b60008251116107125760405160e560020a62461bcd02815260206004820152601460248201527f446174612063616e6e6f7420626520656d7074790000000000000000000000006044820152606401610468565b60008151116107665760405160e560020a62461bcd02815260206004820152601960248201527f4461746120747970652063616e6e6f7420626520656d707479000000000000006044820152606401610468565b600080546040519091906107849085908590339042906020016110b6565b60408051808303601f19018152828252805160209182012060e084018352338452908301878152429284019290925260608301869052608083018590524360a084015260c083018190526000805460018101825590805283517f290decd9548b62a8d60345a988386fc84ba6bc95484008f6362f93160ef3e5636007909202918201805473ffffffffffffffffffffffffffffffffffffffff1916600160a060020a0390921691909117815592519194508392917f290decd9548b62a8d60345a988386fc84ba6bc95484008f6362f93160ef3e56490910190610867908261115b565b506040820151600282015560608201516003820190610886908261115b565b506080820151600482015560a0820151600582015560c090910151600690910155336000908152600160208181526040808420805493840181558452922001849055516002906108d7908690611036565b90815260405190819003602090810182208054600181018255600091825291902001849055839033907fed3b2c6d7e3ccf5f876501e8f107161b7275fb331c9a76dfe8833f2eff0c29849061093590899042908a9043908a90611221565b60405180910390a35050505050565b600160a060020a03811660009081526001602090815260409182902080548351818402810184019094528084526060939283018282801561040b57602002820191906000526020600020908154815260200190600101908083116103f75750505050509050919050565b8151602081840181018051600282529282019185019190912091905280548290811061022a57600080fd5b6109e1610bcb565b6000548210610a355760405160e560020a62461bcd02815260206004820152601460248201527f456e74727920646f6573206e6f742065786973740000000000000000000000006044820152606401610468565b60008281548110610a4857610a48611084565b60009182526020918290206040805160e081019091526007909202018054600160a060020a031682526001810180549293919291840191610a8890610ff9565b80601f0160208091040260200160405190810160405280929190818152602001828054610ab490610ff9565b8015610b015780601f10610ad657610100808354040283529160200191610b01565b820191906000526020600020905b815481529060010190602001808311610ae457829003601f168201915b5050505050815260200160028201548152602001600382018054610b2490610ff9565b80601f0160208091040260200160405190810160405280929190818152602001828054610b5090610ff9565b8015610b9d5780601f10610b7257610100808354040283529160200191610b9d565b820191906000526020600020905b815481529060010190602001808311610b8057829003601f168201915b5050505050815260200160048201548152602001600582015481526020016006820154815250509050919050565b6040518060e001604052806000600160a060020a031681526020016060815260200160008152602001606081526020016000815260200160008152602001600080191681525090565b8035600160a060020a0381168114610c2b57600080fd5b919050565b60008060408385031215610c4357600080fd5b610c4c83610c14565b946020939093013593505050565b600060208284031215610c6c57600080fd5b5035919050565b60005b83811015610c8e578181015183820152602001610c76565b50506000910152565b60008151808452610caf816020860160208601610c73565b601f01601f19169290920160200192915050565b600160a060020a038816815260e060208201526000610ce560e0830189610c97565b8760408401528281036060840152610cfd8188610c97565b6080840196909652505060a081019290925260c090910152949350505050565b60e060020a634e487b7102600052604160045260246000fd5b600082601f830112610d4757600080fd5b813567ffffffffffffffff80821115610d6257610d62610d1d565b604051601f8301601f19908116603f01168101908282118183101715610d8a57610d8a610d1d565b81604052838152866020858801011115610da357600080fd5b836020870160208301376000602085830101528094505050505092915050565b600060208284031215610dd557600080fd5b813567ffffffffffffffff811115610dec57600080fd5b610df884828501610d36565b949350505050565b6020808252825182820181905260009190848201906040850190845b81811015610e3857835183529284019291840191600101610e1c565b50909695505050505050565b600160a060020a0381511682526000602082015160e06020850152610e6c60e0850182610c97565b90506040830151604085015260608301518482036060860152610e8f8282610c97565b9150506080830151608085015260a083015160a085015260c083015160c08501528091505092915050565b600060208083018184528085518083526040860191506040848202870101925083870160005b82811015610f0e57603f19888603018452610efc858351610e44565b94509285019290850190600101610ee0565b5092979650505050505050565b60008060408385031215610f2e57600080fd5b823567ffffffffffffffff80821115610f4657600080fd5b610f5286838701610d36565b93506020850135915080821115610f6857600080fd5b50610f7585828601610d36565b9150509250929050565b600060208284031215610f9157600080fd5b610f9a82610c14565b9392505050565b60008060408385031215610fb457600080fd5b823567ffffffffffffffff811115610fcb57600080fd5b610fd785828601610d36565b95602094909401359450505050565b602081526000610f9a6020830184610e44565b60028104600182168061100d57607f821691505b6020821081036110305760e060020a634e487b7102600052602260045260246000fd5b50919050565b60008251611048818460208701610c73565b9190910192915050565b60e060020a634e487b7102600052601160045260246000fd5b8181038181111561107e5761107e611052565b92915050565b60e060020a634e487b7102600052603260045260246000fd5b6000600182016110af576110af611052565b5060010190565b600085516110c8818460208a01610c73565b8551908301906110dc818360208a01610c73565b600160a060020a03959095166c010000000000000000000000000294019384525050601482015260340192915050565b601f821115611156576000818152602081206020601f860104810160208610156111335750805b6020601f860104820191505b818110156111525782815560010161113f565b5050505b505050565b815167ffffffffffffffff81111561117557611175610d1d565b611189816111838454610ff9565b8461110c565b602080601f8311600181146111c257600084156111a65750858301515b60028086026008870290910a6000190419821617865550611152565b600085815260208120601f198616915b828110156111f1578886015182559484019460019091019084016111d2565b508582101561121157878501516008601f88160260020a60001904191681555b5050505050600202600101905550565b60a08152600061123460a0830188610c97565b866020840152828103604084015261124c8187610c97565b6060840195909552505060800152939250505056fea26469706673582212207f3b032708f0725c0f5896bf4dc26d4d40773e0279b144c48f779d45f782731764736f6c63430008130033",
  "immutableReferences": {},
  "source": "// SPDX-License-Identifier: MIT\npragma solidity >=0.4.22 <0.9.0;\n\ncontract DataStorage {\n    struct DataEntry {\n        address user;\n        string data;\n        uint256 timestamp;\n        string dataType;\n        uint256 entryId;\n        uint256 blockNumber;\n        bytes32 dataHash;\n    }\n\n    DataEntry[] public dataEntries;\n    mapping(address => uint256[]) public userEntries;\n    mapping(string => uint256[]) public typeEntries;\n\n    address public owner;\n\n    //  \n    event DataStored(\n        address indexed user,\n        string data,\n        uint256 timestamp,\n        string dataType,\n        uint256 indexed entryId,\n        uint256 blockNumber,\n        bytes32 dataHash\n    );\n\n    event ContractDeployed(\n        address indexed deployer,\n        uint256 timestamp,\n        uint256 blockNumber\n    );\n\n    constructor() {\n        owner = msg.sender;\n\n        //  \n        emit ContractDeployed(msg.sender, block.timestamp, block.number);\n    }\n\n    //  \n    function storeData(string memory data, string memory dataType) public {\n        require(bytes(data).length > 0, \"Data cannot be empty\");\n        require(bytes(dataType).length > 0, \"Data type cannot be empty\");\n\n        uint256 entryId = dataEntries.length;\n        bytes32 dataHash = keccak256(\n            abi.encodePacked(data, dataType, msg.sender, block.timestamp)\n        );\n\n        DataEntry memory newEntry = DataEntry({\n            user: msg.sender,\n            data: data,\n            timestamp: block.timestamp,\n            dataType: dataType,\n            entryId: entryId,\n            blockNumber: block.number,\n            dataHash: dataHash\n        });\n\n        dataEntries.push(newEntry);\n        userEntries[msg.sender].push(entryId);\n        typeEntries[dataType].push(entryId);\n\n        //  \n        emit DataStored(\n            msg.sender,\n            data,\n            block.timestamp,\n            dataType,\n            entryId,\n            block.number,\n            dataHash\n        );\n    }\n\n    // \n    function getDataCount() public view returns (uint256) {\n        return dataEntries.length;\n    }\n\n    function getUserDataCount(address user) public view returns (uint256) {\n        return userEntries[user].length;\n    }\n\n    function getDataByType(\n        string memory dataType\n    ) public view returns (uint256[] memory) {\n        return typeEntries[dataType];\n    }\n\n    function getUserEntries(\n        address user\n    ) public view returns (uint256[] memory) {\n        return userEntries[user];\n    }\n\n    function getEntry(uint256 entryId) public view returns (DataEntry memory) {\n        require(entryId < dataEntries.length, \"Entry does not exist\");\n        return dataEntries[entryId];\n    }\n\n    // \n    function getLatestEntries(\n        uint256 count\n    ) public view returns (DataEntry[] memory) {\n        require(count > 0, \"Count must be greater than 0\");\n\n        uint256 total = dataEntries.length;\n        if (count > total) count = total;\n\n        DataEntry[] memory latest = new DataEntry[](count);\n\n        for (uint256 i = 0; i < count; i++) {\n            latest[i] = dataEntries[total - 1 - i];\n        }\n\n        return latest;\n    }\n}\n",
  "sourcePath": "/Users/limuran/Documents/solidty/web-wallet-truffe/contracts/DataStorage.sol",
  "compiler": {
    "name": "solc",
    "version": "0.8.19+commit.7dd6d404.Emscripten.clang"
  },
  "schemaVersion": "3.4.16",
  "updatedAt": "2025-09-04T16:05:57.516Z",
  "networkType": "ethereum",
  "devdoc": {
    "kind": "dev",
    "methods": {},
    "version": 1
  },
  "userdoc": {
    "kind": "user",
    "methods": {},
    "version": 1
  }
}