{
  "contractName": "DataStorage",
  "abi": [
    {
      "inputs": [],
      "stateMutability": "nonpayable",
      "type": "constructor"
    },
    {
      "anonymous": false,
      "inputs": [
        {
          "indexed": true,
          "internalType": "address",
          "name": "deployer",
          "type": "address"
        },
        {
          "indexed": false,
          "internalType": "uint256",
          "name": "timestamp",
          "type": "uint256"
        },
        {
          "indexed": false,
          "internalType": "uint256",
          "name": "blockNumber",
          "type": "uint256"
        }
      ],
      "name": "ContractDeployed",
      "type": "event"
    },
    {
      "anonymous": false,
      "inputs": [
        {
          "indexed": true,
          "internalType": "address",
          "name": "user",
          "type": "address"
        },
        {
          "indexed": false,
          "internalType": "string",
          "name": "data",
          "type": "string"
        },
        {
          "indexed": false,
          "internalType": "uint256",
          "name": "timestamp",
          "type": "uint256"
        },
        {
          "indexed": false,
          "internalType": "string",
          "name": "dataType",
          "type": "string"
        },
        {
          "indexed": true,
          "internalType": "uint256",
          "name": "entryId",
          "type": "uint256"
        },
        {
          "indexed": false,
          "internalType": "uint256",
          "name": "blockNumber",
          "type": "uint256"
        },
        {
          "indexed": false,
          "internalType": "bytes32",
          "name": "dataHash",
          "type": "bytes32"
        }
      ],
      "name": "DataStored",
      "type": "event"
    },
    {
      "inputs": [
        {
          "internalType": "uint256",
          "name": "",
          "type": "uint256"
        }
      ],
      "name": "dataEntries",
      "outputs": [
        {
          "internalType": "address",
          "name": "user",
          "type": "address"
        },
        {
          "internalType": "string",
          "name": "data",
          "type": "string"
        },
        {
          "internalType": "uint256",
          "name": "timestamp",
          "type": "uint256"
        },
        {
          "internalType": "string",
          "name": "dataType",
          "type": "string"
        },
        {
          "internalType": "uint256",
          "name": "entryId",
          "type": "uint256"
        },
        {
          "internalType": "uint256",
          "name": "blockNumber",
          "type": "uint256"
        },
        {
          "internalType": "bytes32",
          "name": "dataHash",
          "type": "bytes32"
        }
      ],
      "stateMutability": "view",
      "type": "function",
      "constant": true
    },
    {
      "inputs": [],
      "name": "owner",
      "outputs": [
        {
          "internalType": "address",
          "name": "",
          "type": "address"
        }
      ],
      "stateMutability": "view",
      "type": "function",
      "constant": true
    },
    {
      "inputs": [
        {
          "internalType": "string",
          "name": "",
          "type": "string"
        },
        {
          "internalType": "uint256",
          "name": "",
          "type": "uint256"
        }
      ],
      "name": "typeEntries",
      "outputs": [
        {
          "internalType": "uint256",
          "name": "",
          "type": "uint256"
        }
      ],
      "stateMutability": "view",
      "type": "function",
      "constant": true
    },
    {
      "inputs": [
        {
          "internalType": "address",
          "name": "",
          "type": "address"
        },
        {
          "internalType": "uint256",
          "name": "",
          "type": "uint256"
        }
      ],
      "name": "userEntries",
      "outputs": [
        {
          "internalType": "uint256",
          "name": "",
          "type": "uint256"
        }
      ],
      "stateMutability": "view",
      "type": "function",
      "constant": true
    },
    {
      "inputs": [
        {
          "internalType": "string",
          "name": "data",
          "type": "string"
        },
        {
          "internalType": "string",
          "name": "dataType",
          "type": "string"
        }
      ],
      "name": "storeData",
      "outputs": [],
      "stateMutability": "nonpayable",
      "type": "function"
    },
    {
      "inputs": [],
      "name": "getDataCount",
      "outputs": [
        {
          "internalType": "uint256",
          "name": "",
          "type": "uint256"
        }
      ],
      "stateMutability": "view",
      "type": "function",
      "constant": true
    },
    {
      "inputs": [
        {
          "internalType": "address",
          "name": "user",
          "type": "address"
        }
      ],
      "name": "getUserDataCount",
      "outputs": [
        {
          "internalType": "uint256",
          "name": "",
          "type": "uint256"
        }
      ],
      "stateMutability": "view",
      "type": "function",
      "constant": true
    },
    {
      "inputs": [
        {
          "internalType": "string",
          "name": "dataType",
          "type": "string"
        }
      ],
      "name": "getDataByType",
      "outputs": [
        {
          "internalType": "uint256[]",
          "name": "",
          "type": "uint256[]"
        }
      ],
      "stateMutability": "view",
      "type": "function",
      "constant": true
    },
    {
      "inputs": [
        {
          "internalType": "address",
          "name": "user",
          "type": "address"
        }
      ],
      "name": "getUserEntries",
      "outputs": [
        {
          "internalType": "uint256[]",
          "name": "",
          "type": "uint256[]"
        }
      ],
      "stateMutability": "view",
      "type": "function",
      "constant": true
    },
    {
      "inputs": [
        {
          "internalType": "uint256",
          "name": "entryId",
          "type": "uint256"
        }
      ],
      "name": "getEntry",
      "outputs": [
        {
          "components": [
            {
              "internalType": "address",
              "name": "user",
              "type": "address"
            },
            {
              "internalType": "string",
              "name": "data",
              "type": "string"
            },
            {
              "internalType": "uint256",
              "name": "timestamp",
              "type": "uint256"
            },
            {
              "internalType": "string",
              "name": "dataType",
              "type": "string"
            },
            {
              "internalType": "uint256",
              "name": "entryId",
              "type": "uint256"
            },
            {
              "internalType": "uint256",
              "name": "blockNumber",
              "type": "uint256"
            },
            {
              "internalType": "bytes32",
              "name": "dataHash",
              "type": "bytes32"
            }
          ],
          "internalType": "struct DataStorage.DataEntry",
          "name": "",
          "type": "tuple"
        }
      ],
      "stateMutability": "view",
      "type": "function",
      "constant": true
    },
    {
      "inputs": [
        {
          "internalType": "uint256",
          "name": "count",
          "type": "uint256"
        }
      ],
      "name": "getLatestEntries",
      "outputs": [
        {
          "components": [
            {
              "internalType": "address",
              "name": "user",
              "type": "address"
            },
            {
              "internalType": "string",
              "name": "data",
              "type": "string"
            },
            {
              "internalType": "uint256",
              "name": "timestamp",
              "type": "uint256"
            },
            {
              "internalType": "string",
              "name": "dataType",
              "type": "string"
            },
            {
              "internalType": "uint256",
              "name": "entryId",
              "type": "uint256"
            },
            {
              "internalType": "uint256",
              "name": "blockNumber",
              "type": "uint256"
            },
            {
              "internalType": "bytes32",
              "name": "dataHash",
              "type": "bytes32"
            }
          ],
          "internalType": "struct DataStorage.DataEntry[]",
          "name": "",
          "type": "tuple[]"
        }
      ],
      "stateMutability": "view",
      "type": "function",
      "constant": true
    }
  ],
  "bytecode": "0x60806040523480156200001157600080fd5b5033600360006101000a81548173ffffffffffffffffffffffffffffffffffffffff021916908373ffffffffffffffffffffffffffffffffffffffff1602179055503373ffffffffffffffffffffffffffffffffffffffff167f841dc6a6c60372f7a25ab4e5cb947a19940954c4364b1badbc999dc6f570486842436040516200009d929190620000c6565b60405180910390a2620000f3565b6000819050919050565b620000c081620000ab565b82525050565b6000604082019050620000dd6000830185620000b5565b620000ec6020830184620000b5565b9392505050565b611e1e80620001036000396000f3fe608060405234801561001057600080fd5b50600436106100c6576000357c010000000000000000000000000000000000000000000000000000000090048063647f94a51161008e578063647f94a5146101ad5780637355a424146101dd5780638da5cb5b146101fb578063904181d014610219578063a0a8cca814610249578063bae78d7b14610279576100c6565b80630b913af0146100cb578063325f4658146100fb57806332b011d9146101315780633d813822146101615780634ece5b4c14610191575b600080fd5b6100e560048036038101906100e09190610f11565b6102a9565b6040516100f29190610f60565b60405180910390f35b61011560048036038101906101109190610f7b565b6102da565b6040516101289796959493929190611060565b60405180910390f35b61014b60048036038101906101469190611212565b61045c565b6040516101589190611319565b60405180910390f35b61017b60048036038101906101769190610f7b565b6104d2565b6040516101889190611508565b60405180910390f35b6101ab60048036038101906101a6919061152a565b6107b1565b005b6101c760048036038101906101c291906115a2565b610a92565b6040516101d49190610f60565b60405180910390f35b6101e5610ade565b6040516101f29190610f60565b60405180910390f35b610203610aea565b60405161021091906115cf565b60405180910390f35b610233600480360381019061022e91906115a2565b610b10565b6040516102409190611319565b60405180910390f35b610263600480360381019061025e91906115ea565b610ba7565b6040516102709190610f60565b60405180910390f35b610293600480360381019061028e9190610f7b565b610bee565b6040516102a091906116e9565b60405180910390f35b600160205281600052604060002081815481106102c557600080fd5b90600052602060002001600091509150505481565b600081815481106102ea57600080fd5b90600052602060002090600702016000915090508060000160009054906101000a900473ffffffffffffffffffffffffffffffffffffffff16908060010180546103339061173a565b80601f016020809104026020016040519081016040528092919081815260200182805461035f9061173a565b80156103ac5780601f10610381576101008083540402835291602001916103ac565b820191906000526020600020905b81548152906001019060200180831161038f57829003601f168201915b5050505050908060020154908060030180546103c79061173a565b80601f01602080910402602001604051908101604052809291908181526020018280546103f39061173a565b80156104405780601f1061041557610100808354040283529160200191610440565b820191906000526020600020905b81548152906001019060200180831161042357829003601f168201915b5050505050908060040154908060050154908060060154905087565b606060028260405161046e91906117a7565b90815260200160405180910390208054806020026020016040519081016040528092919081815260200182805480156104c657602002820191906000526020600020905b8154815260200190600101908083116104b2575b50505050509050919050565b606060008211610517576040517f08c379a000000000000000000000000000000000000000000000000000000000815260040161050e9061180a565b60405180910390fd5b6000808054905090508083111561052c578092505b60008367ffffffffffffffff811115610548576105476110e7565b5b60405190808252806020026020018201604052801561058157816020015b61056e610e13565b8152602001906001900390816105665790505b50905060005b848110156107a65760008160018561059f9190611859565b6105a99190611859565b815481106105ba576105b961188d565b5b90600052602060002090600702016040518060e00160405290816000820160009054906101000a900473ffffffffffffffffffffffffffffffffffffffff1673ffffffffffffffffffffffffffffffffffffffff1673ffffffffffffffffffffffffffffffffffffffff1681526020016001820180546106399061173a565b80601f01602080910402602001604051908101604052809291908181526020018280546106659061173a565b80156106b25780601f10610687576101008083540402835291602001916106b2565b820191906000526020600020905b81548152906001019060200180831161069557829003601f168201915b50505050508152602001600282015481526020016003820180546106d59061173a565b80601f01602080910402602001604051908101604052809291908181526020018280546107019061173a565b801561074e5780601f106107235761010080835404028352916020019161074e565b820191906000526020600020905b81548152906001019060200180831161073157829003601f168201915b5050505050815260200160048201548152602001600582015481526020016006820154815250508282815181106107885761078761188d565b5b6020026020010181905250808061079e906118bc565b915050610587565b508092505050919050565b60008251116107f5576040517f08c379a00000000000000000000000000000000000000000000000000000000081526004016107ec90611950565b60405180910390fd5b6000815111610839576040517f08c379a0000000000000000000000000000000000000000000000000000000008152600401610830906119bc565b60405180910390fd5b60008080549050905060008383334260405160200161085b9493929190611a51565b60405160208183030381529060405280519060200120905060006040518060e001604052803373ffffffffffffffffffffffffffffffffffffffff168152602001868152602001428152602001858152602001848152602001438152602001838152509050600081908060018154018082558091505060019003906000526020600020906007020160009091909190915060008201518160000160006101000a81548173ffffffffffffffffffffffffffffffffffffffff021916908373ffffffffffffffffffffffffffffffffffffffff16021790555060208201518160010190816109489190611c49565b506040820151816002015560608201518160030190816109689190611c49565b506080820151816004015560a0820151816005015560c082015181600601555050600160003373ffffffffffffffffffffffffffffffffffffffff1673ffffffffffffffffffffffffffffffffffffffff1681526020019081526020016000208390806001815401808255809150506001900390600052602060002001600090919091909150556002846040516109ff91906117a7565b9081526020016040518091039020839080600181540180825580915050600190039060005260206000200160009091909190915055823373ffffffffffffffffffffffffffffffffffffffff167fed3b2c6d7e3ccf5f876501e8f107161b7275fb331c9a76dfe8833f2eff0c29848742884388604051610a83959493929190611d1b565b60405180910390a35050505050565b6000600160008373ffffffffffffffffffffffffffffffffffffffff1673ffffffffffffffffffffffffffffffffffffffff168152602001908152602001600020805490509050919050565b60008080549050905090565b600360009054906101000a900473ffffffffffffffffffffffffffffffffffffffff1681565b6060600160008373ffffffffffffffffffffffffffffffffffffffff1673ffffffffffffffffffffffffffffffffffffffff168152602001908152602001600020805480602002602001604051908101604052809291908181526020018280548015610b9b57602002820191906000526020600020905b815481526020019060010190808311610b87575b50505050509050919050565b6002828051602081018201805184825260208301602085012081835280955050505050508181548110610bd957600080fd5b90600052602060002001600091509150505481565b610bf6610e13565b6000805490508210610c3d576040517f08c379a0000000000000000000000000000000000000000000000000000000008152600401610c3490611dc8565b60405180910390fd5b60008281548110610c5157610c5061188d565b5b90600052602060002090600702016040518060e00160405290816000820160009054906101000a900473ffffffffffffffffffffffffffffffffffffffff1673ffffffffffffffffffffffffffffffffffffffff1673ffffffffffffffffffffffffffffffffffffffff168152602001600182018054610cd09061173a565b80601f0160208091040260200160405190810160405280929190818152602001828054610cfc9061173a565b8015610d495780601f10610d1e57610100808354040283529160200191610d49565b820191906000526020600020905b815481529060010190602001808311610d2c57829003601f168201915b5050505050815260200160028201548152602001600382018054610d6c9061173a565b80601f0160208091040260200160405190810160405280929190818152602001828054610d989061173a565b8015610de55780601f10610dba57610100808354040283529160200191610de5565b820191906000526020600020905b815481529060010190602001808311610dc857829003601f168201915b5050505050815260200160048201548152602001600582015481526020016006820154815250509050919050565b6040518060e00160405280600073ffffffffffffffffffffffffffffffffffffffff1681526020016060815260200160008152602001606081526020016000815260200160008152602001600080191681525090565b6000604051905090565b600080fd5b600080fd5b600073ffffffffffffffffffffffffffffffffffffffff82169050919050565b6000610ea882610e7d565b9050919050565b610eb881610e9d565b8114610ec357600080fd5b50565b600081359050610ed581610eaf565b92915050565b6000819050919050565b610eee81610edb565b8114610ef957600080fd5b50565b600081359050610f0b81610ee5565b92915050565b60008060408385031215610f2857610f27610e73565b5b6000610f3685828601610ec6565b9250506020610f4785828601610efc565b9150509250929050565b610f5a81610edb565b82525050565b6000602082019050610f756000830184610f51565b92915050565b600060208284031215610f9157610f90610e73565b5b6000610f9f84828501610efc565b91505092915050565b610fb181610e9d565b82525050565b600081519050919050565b600082825260208201905092915050565b60005b83811015610ff1578082015181840152602081019050610fd6565b60008484015250505050565b6000601f19601f8301169050919050565b600061101982610fb7565b6110238185610fc2565b9350611033818560208601610fd3565b61103c81610ffd565b840191505092915050565b6000819050919050565b61105a81611047565b82525050565b600060e082019050611075600083018a610fa8565b8181036020830152611087818961100e565b90506110966040830188610f51565b81810360608301526110a8818761100e565b90506110b76080830186610f51565b6110c460a0830185610f51565b6110d160c0830184611051565b98975050505050505050565b600080fd5b600080fd5b7f4e487b7100000000000000000000000000000000000000000000000000000000600052604160045260246000fd5b61111f82610ffd565b810181811067ffffffffffffffff8211171561113e5761113d6110e7565b5b80604052505050565b6000611151610e69565b905061115d8282611116565b919050565b600067ffffffffffffffff82111561117d5761117c6110e7565b5b61118682610ffd565b9050602081019050919050565b82818337600083830152505050565b60006111b56111b084611162565b611147565b9050828152602081018484840111156111d1576111d06110e2565b5b6111dc848285611193565b509392505050565b600082601f8301126111f9576111f86110dd565b5b81356112098482602086016111a2565b91505092915050565b60006020828403121561122857611227610e73565b5b600082013567ffffffffffffffff81111561124657611245610e78565b5b611252848285016111e4565b91505092915050565b600081519050919050565b600082825260208201905092915050565b6000819050602082019050919050565b61129081610edb565b82525050565b60006112a28383611287565b60208301905092915050565b6000602082019050919050565b60006112c68261125b565b6112d08185611266565b93506112db83611277565b8060005b8381101561130c5781516112f38882611296565b97506112fe836112ae565b9250506001810190506112df565b5085935050505092915050565b6000602082019050818103600083015261133381846112bb565b905092915050565b600081519050919050565b600082825260208201905092915050565b6000819050602082019050919050565b61137081610e9d565b82525050565b600082825260208201905092915050565b600061139282610fb7565b61139c8185611376565b93506113ac818560208601610fd3565b6113b581610ffd565b840191505092915050565b6113c981611047565b82525050565b600060e0830160008301516113e76000860182611367565b50602083015184820360208601526113ff8282611387565b91505060408301516114146040860182611287565b506060830151848203606086015261142c8282611387565b91505060808301516114416080860182611287565b5060a083015161145460a0860182611287565b5060c083015161146760c08601826113c0565b508091505092915050565b600061147e83836113cf565b905092915050565b6000602082019050919050565b600061149e8261133b565b6114a88185611346565b9350836020820285016114ba85611357565b8060005b858110156114f657848403895281516114d78582611472565b94506114e283611486565b925060208a019950506001810190506114be565b50829750879550505050505092915050565b600060208201905081810360008301526115228184611493565b905092915050565b6000806040838503121561154157611540610e73565b5b600083013567ffffffffffffffff81111561155f5761155e610e78565b5b61156b858286016111e4565b925050602083013567ffffffffffffffff81111561158c5761158b610e78565b5b611598858286016111e4565b9150509250929050565b6000602082840312156115b8576115b7610e73565b5b60006115c684828501610ec6565b91505092915050565b60006020820190506115e46000830184610fa8565b92915050565b6000806040838503121561160157611600610e73565b5b600083013567ffffffffffffffff81111561161f5761161e610e78565b5b61162b858286016111e4565b925050602061163c85828601610efc565b9150509250929050565b600060e08301600083015161165e6000860182611367565b50602083015184820360208601526116768282611387565b915050604083015161168b6040860182611287565b50606083015184820360608601526116a38282611387565b91505060808301516116b86080860182611287565b5060a08301516116cb60a0860182611287565b5060c08301516116de60c08601826113c0565b508091505092915050565b600060208201905081810360008301526117038184611646565b905092915050565b7f4e487b7100000000000000000000000000000000000000000000000000000000600052602260045260246000fd5b6000600282049050600182168061175257607f821691505b6020821081036117655761176461170b565b5b50919050565b600081905092915050565b600061178182610fb7565b61178b818561176b565b935061179b818560208601610fd3565b80840191505092915050565b60006117b38284611776565b915081905092915050565b7f436f756e74206d7573742062652067726561746572207468616e203000000000600082015250565b60006117f4601c83610fc2565b91506117ff826117be565b602082019050919050565b60006020820190508181036000830152611823816117e7565b9050919050565b7f4e487b7100000000000000000000000000000000000000000000000000000000600052601160045260246000fd5b600061186482610edb565b915061186f83610edb565b92508282039050818111156118875761188661182a565b5b92915050565b7f4e487b7100000000000000000000000000000000000000000000000000000000600052603260045260246000fd5b60006118c782610edb565b91507fffffffffffffffffffffffffffffffffffffffffffffffffffffffffffffffff82036118f9576118f861182a565b5b600182019050919050565b7f446174612063616e6e6f7420626520656d707479000000000000000000000000600082015250565b600061193a601483610fc2565b915061194582611904565b602082019050919050565b600060208201905081810360008301526119698161192d565b9050919050565b7f4461746120747970652063616e6e6f7420626520656d70747900000000000000600082015250565b60006119a6601983610fc2565b91506119b182611970565b602082019050919050565b600060208201905081810360008301526119d581611999565b9050919050565b60006c0100000000000000000000000082029050919050565b6000611a00826119dc565b9050919050565b6000611a12826119f5565b9050919050565b611a2a611a2582610e9d565b611a07565b82525050565b6000819050919050565b611a4b611a4682610edb565b611a30565b82525050565b6000611a5d8287611776565b9150611a698286611776565b9150611a758285611a19565b601482019150611a858284611a3a565b60208201915081905095945050505050565b60008190508160005260206000209050919050565b60006020601f8301049050919050565b60008160020a8302905092915050565b600060088302611afc7fffffffffffffffffffffffffffffffffffffffffffffffffffffffffffffffff82611abc565b611b068683611abc565b95508019841693508086168417925050509392505050565b6000819050919050565b6000611b43611b3e611b3984610edb565b611b1e565b610edb565b9050919050565b6000819050919050565b611b5d83611b28565b611b71611b6982611b4a565b848454611acc565b825550505050565b600090565b611b86611b79565b611b91818484611b54565b505050565b5b81811015611bb557611baa600082611b7e565b600181019050611b97565b5050565b601f821115611bfa57611bcb81611a97565b611bd484611aac565b81016020851015611be3578190505b611bf7611bef85611aac565b830182611b96565b50505b505050565b60008160020a8304905092915050565b6000611c2060001984600802611bff565b1980831691505092915050565b6000611c398383611c0f565b9150826002028217905092915050565b611c5282610fb7565b67ffffffffffffffff811115611c6b57611c6a6110e7565b5b611c75825461173a565b611c80828285611bb9565b600060209050601f831160018114611cb35760008415611ca1578287015190505b611cab8582611c2d565b865550611d13565b601f198416611cc186611a97565b60005b82811015611ce957848901518255600182019150602085019450602081019050611cc4565b86831015611d065784890151611d02601f891682611c0f565b8355505b6001600288020188555050505b505050505050565b600060a0820190508181036000830152611d35818861100e565b9050611d446020830187610f51565b8181036040830152611d56818661100e565b9050611d656060830185610f51565b611d726080830184611051565b9695505050505050565b7f456e74727920646f6573206e6f74206578697374000000000000000000000000600082015250565b6000611db2601483610fc2565b9150611dbd82611d7c565b602082019050919050565b60006020820190508181036000830152611de181611da5565b905091905056fea2646970667358221220088467d485d82b6997a783162cd7ff19dc7b13e47665ec5dd7c40b000cc244b564736f6c63430008150033",
  "immutableReferences": {},
  "source": "// SPDX-License-Identifier: MIT\npragma solidity >=0.4.22 <0.9.0;\n\ncontract DataStorage {\n    struct DataEntry {\n        address user;\n        string data;\n        uint256 timestamp;\n        string dataType;\n        uint256 entryId;\n        uint256 blockNumber;\n        bytes32 dataHash;\n    }\n\n    DataEntry[] public dataEntries;\n    mapping(address => uint256[]) public userEntries;\n    mapping(string => uint256[]) public typeEntries;\n\n    address public owner;\n\n    //  \n    event DataStored(\n        address indexed user,\n        string data,\n        uint256 timestamp,\n        string dataType,\n        uint256 indexed entryId,\n        uint256 blockNumber,\n        bytes32 dataHash\n    );\n\n    event ContractDeployed(\n        address indexed deployer,\n        uint256 timestamp,\n        uint256 blockNumber\n    );\n\n    constructor() {\n        owner = msg.sender;\n\n        //  \n        emit ContractDeployed(msg.sender, block.timestamp, block.number);\n    }\n\n    //  \n    function storeData(string memory data, string memory dataType) public {\n        require(bytes(data).length > 0, \"Data cannot be empty\");\n        require(bytes(dataType).length > 0, \"Data type cannot be empty\");\n\n        uint256 entryId = dataEntries.length;\n        bytes32 dataHash = keccak256(\n            abi.encodePacked(data, dataType, msg.sender, block.timestamp)\n        );\n\n        DataEntry memory newEntry = DataEntry({\n            user: msg.sender,\n            data: data,\n            timestamp: block.timestamp,\n            dataType: dataType,\n            entryId: entryId,\n            blockNumber: block.number,\n            dataHash: dataHash\n        });\n\n        dataEntries.push(newEntry);\n        userEntries[msg.sender].push(entryId);\n        typeEntries[dataType].push(entryId);\n\n        //  \n        emit DataStored(\n            msg.sender,\n            data,\n            block.timestamp,\n            dataType,\n            entryId,\n            block.number,\n            dataHash\n        );\n    }\n\n    // \n    function getDataCount() public view returns (uint256) {\n        return dataEntries.length;\n    }\n\n    function getUserDataCount(address user) public view returns (uint256) {\n        return userEntries[user].length;\n    }\n\n    function getDataByType(\n        string memory dataType\n    ) public view returns (uint256[] memory) {\n        return typeEntries[dataType];\n    }\n\n    function getUserEntries(\n        address user\n    ) public view returns (uint256[] memory) {\n        return userEntries[user];\n    }\n\n    function getEntry(uint256 entryId) public view returns (DataEntry memory) {\n        require(entryId < dataEntries.length, \"Entry does not exist\");\n        return dataEntries[entryId];\n    }\n\n    // \n    function getLatestEntries(\n        uint256 count\n    ) public view returns (DataEntry[] memory) {\n        require(count > 0, \"Count must be greater than 0\");\n\n        uint256 total = dataEntries.length;\n        if (count > total) count = total;\n\n        DataEntry[] memory latest = new DataEntry[](count);\n\n        for (uint256 i = 0; i < count; i++) {\n            latest[i] = dataEntries[total - 1 - i];\n        }\n\n        return latest;\n    }\n}\n",
  "sourcePath": "/Users/limuran/Documents/solidty/web-wallet-truffe/contracts/DataStorage.sol",
  "compiler": {
    "name": "solc",
    "version": "0.8.21+commit.d9974bed.Emscripten.clang"
  },
  "schemaVersion": "3.4.16",
  "updatedAt": "2025-09-04T15:04:55.156Z",
  "networkType": "ethereum",
  "devdoc": {
    "kind": "dev",
    "methods": {},
    "version": 1
  },
  "userdoc": {
    "kind": "user",
    "methods": {},
    "version": 1
  }
}