{
  "contractName": "InfoContract",
  "abi": [
    {
      "anonymous": false,
      "inputs": [
        {
          "indexed": false,
          "internalType": "string",
          "name": "name",
          "type": "string"
        },
        {
          "indexed": false,
          "internalType": "uint256",
          "name": "age",
          "type": "uint256"
        }
      ],
      "name": "Instructor",
      "type": "event"
    },
    {
      "inputs": [
        {
          "internalType": "string",
          "name": "_name",
          "type": "string"
        },
        {
          "internalType": "uint256",
          "name": "_age",
          "type": "uint256"
        }
      ],
      "name": "setinfo",
      "outputs": [],
      "stateMutability": "nonpayable",
      "type": "function"
    },
    {
      "inputs": [],
      "name": "sayHi",
      "outputs": [
        {
          "internalType": "string",
          "name": "",
          "type": "string"
        }
      ],
      "stateMutability": "pure",
      "type": "function",
      "constant": true
    },
    {
      "inputs": [],
      "name": "getInfo",
      "outputs": [
        {
          "internalType": "string",
          "name": "",
          "type": "string"
        },
        {
          "internalType": "uint256",
          "name": "",
          "type": "uint256"
        }
      ],
      "stateMutability": "view",
      "type": "function",
      "constant": true
    }
  ],
  "bytecode": "0x608060405234801561001057600080fd5b5061055a806100206000396000f3fe608060405234801561001057600080fd5b506004361061005d577c010000000000000000000000000000000000000000000000000000000060003504630c49c36c81146100625780635a9b0b89146100aa5780635ac1e221146100c0575b600080fd5b604080518082018252600b81527f48656c6c6f20576f726c64000000000000000000000000000000000000000000602082015290516100a19190610208565b60405180910390f35b6100b26100d5565b6040516100a1929190610222565b6100d36100ce366004610273565b610171565b005b60606000806001548180546100e990610328565b80601f016020809104026020016040519081016040528092919081815260200182805461011590610328565b80156101625780601f1061013757610100808354040283529160200191610162565b820191906000526020600020905b81548152906001019060200180831161014557829003601f168201915b50505050509150915091509091565b600061017d83826103ca565b5060018190556040517f010becc10ca1475887c4ec429def1ccc2e9ea1713fe8b0d4e9a1d009042f6b8e906101b6906000908490610490565b60405180910390a15050565b6000815180845260005b818110156101e8576020818501810151868301820152016101cc565b506000602082860101526020601f19601f83011685010191505092915050565b60208152600061021b60208301846101c2565b9392505050565b60408152600061023560408301856101c2565b90508260208301529392505050565b7f4e487b7100000000000000000000000000000000000000000000000000000000600052604160045260246000fd5b6000806040838503121561028657600080fd5b823567ffffffffffffffff8082111561029e57600080fd5b818501915085601f8301126102b257600080fd5b8135818111156102c4576102c4610244565b604051601f8201601f19908116603f011681019083821181831017156102ec576102ec610244565b8160405282815288602084870101111561030557600080fd5b826020860160208301376000602093820184015298969091013596505050505050565b60028104600182168061033c57607f821691505b602082108103610375577f4e487b7100000000000000000000000000000000000000000000000000000000600052602260045260246000fd5b50919050565b601f8211156103c5576000818152602081206020601f860104810160208610156103a25750805b6020601f860104820191505b818110156103c1578281556001016103ae565b5050505b505050565b815167ffffffffffffffff8111156103e4576103e4610244565b6103f8816103f28454610328565b8461037b565b602080601f83116001811461043157600084156104155750858301515b60028086026008870290910a60001904198216178655506103c1565b600085815260208120601f198616915b8281101561046057888601518255948401946001909101908401610441565b508582101561048057878501516008601f88160260020a60001904191681555b5050505050600202600101905550565b6040815260008084546104a281610328565b80604086015260606001808416600081146104c457600181146104de5761050f565b60ff1985168884015260208415150288018301955061050f565b8960005260208060002060005b868110156105065781548b82018701529084019082016104eb565b8a018501975050505b5050505050602092909201929092529291505056fea2646970667358221220f569961355596a7af77387b3742e6853d7f2c82c22723bf6d6dff948e383afb264736f6c63430008130033",
  "immutableReferences": {},
  "source": "// SPDX-License-Identifier: MIT\npragma solidity >=0.4.22 <0.9.0;\n\ncontract InfoContract {\n    string name;\n    uint256 age;\n    event Instructor(string name, uint256 age);\n    function setinfo(string memory _name, uint256 _age) public {\n        name = _name;\n        age = _age;\n        emit Instructor(name, age);\n    }\n    function sayHi() public pure returns (string memory) {\n        return \"Hello World\";\n    }\n\n    function getInfo() public view returns (string memory, uint256) {\n        return (name, age);\n    }\n}\n",
  "sourcePath": "/Users/limuran/Documents/solidty/web-wallet-truffe/contracts/InfoContract.sol",
  "compiler": {
    "name": "solc",
    "version": "0.8.19+commit.7dd6d404.Emscripten.clang"
  },
  "schemaVersion": "3.4.16",
  "updatedAt": "2025-09-04T16:05:57.465Z",
  "networkType": "ethereum",
  "devdoc": {
    "kind": "dev",
    "methods": {},
    "version": 1
  },
  "userdoc": {
    "kind": "user",
    "methods": {},
    "version": 1
  }
}