{
  "contractName": "RedPackage",
  "abi": [
    {
      "inputs": [
        {
          "internalType": "uint256",
          "name": "c",
          "type": "uint256"
        },
        {
          "internalType": "bool",
          "name": "_isEqual",
          "type": "bool"
        }
      ],
      "stateMutability": "payable",
      "type": "constructor"
    },
    {
      "inputs": [],
      "name": "count",
      "outputs": [
        {
          "internalType": "uint256",
          "name": "",
          "type": "uint256"
        }
      ],
      "stateMutability": "view",
      "type": "function"
    },
    {
      "inputs": [],
      "name": "isEqual",
      "outputs": [
        {
          "internalType": "bool",
          "name": "",
          "type": "bool"
        }
      ],
      "stateMutability": "view",
      "type": "function"
    },
    {
      "inputs": [
        {
          "internalType": "address",
          "name": "",
          "type": "address"
        }
      ],
      "name": "isGrabbed",
      "outputs": [
        {
          "internalType": "uint256",
          "name": "",
          "type": "uint256"
        }
      ],
      "stateMutability": "view",
      "type": "function"
    },
    {
      "inputs": [],
      "name": "totalAmount",
      "outputs": [
        {
          "internalType": "uint256",
          "name": "",
          "type": "uint256"
        }
      ],
      "stateMutability": "view",
      "type": "function"
    },
    {
      "inputs": [],
      "name": "xxx",
      "outputs": [
        {
          "internalType": "address payable",
          "name": "",
          "type": "address"
        }
      ],
      "stateMutability": "view",
      "type": "function"
    },
    {
      "inputs": [],
      "name": "getBalance",
      "outputs": [
        {
          "internalType": "uint256",
          "name": "",
          "type": "uint256"
        }
      ],
      "stateMutability": "view",
      "type": "function"
    },
    {
      "inputs": [],
      "name": "deposit",
      "outputs": [],
      "stateMutability": "payable",
      "type": "function"
    },
    {
      "inputs": [],
      "name": "getRedPacket",
      "outputs": [],
      "stateMutability": "nonpayable",
      "type": "function"
    }
  ],
  "bytecode": "0x60806040526040516105eb3803806105eb833981016040819052610022916100c4565b60003411610090576040517f08c379a000000000000000000000000000000000000000000000000000000000815260206004820152600e60248201527f616d6f756e74206d757374203e30000000000000000000000000000000000000604482015260640160405180910390fd5b60029190915560008054600160a060020a031916331790556003805491151560ff19909216919091179055346001556100f9565b600080604083850312156100d757600080fd5b82519150602083015180151581146100ee57600080fd5b809150509250929050565b6104e3806101086000396000f3fe608060405260043610610098576000357c0100000000000000000000000000000000000000000000000000000000900480631c6d31f71161006b5780631c6d31f71461011d578063782940461461016f578063acbe845214610186578063d0e30db01461018457600080fd5b806306661abd1461009d5780630ec0afc9146100c657806312065fe0146100f35780631a39d8ef14610107575b600080fd5b3480156100a957600080fd5b506100b360025481565b6040519081526020015b60405180910390f35b3480156100d257600080fd5b506100b36100e13660046103d6565b60046020526000908152604090205481565b3480156100ff57600080fd5b5030316100b3565b34801561011357600080fd5b506100b360015481565b34801561012957600080fd5b5060005461014a9073ffffffffffffffffffffffffffffffffffffffff1681565b60405173ffffffffffffffffffffffffffffffffffffffff90911681526020016100bd565b34801561017b57600080fd5b506101846101b0565b005b34801561019257600080fd5b506003546101a09060ff1681565b60405190151581526020016100bd565b600060025411610221576040517f08c379a000000000000000000000000000000000000000000000000000000000815260206004820152601360248201527f726564207061636b657420697320656d7074790000000000000000000000000060448201526064015b60405180910390fd5b60006001541161028d576040517f08c379a000000000000000000000000000000000000000000000000000000000815260206004820152601460248201527f746f74616c416d6f756e74206d757374203e20300000000000000000000000006044820152606401610218565b3360009081526004602052604090205415610304576040517f08c379a000000000000000000000000000000000000000000000000000000000815260206004820152601060248201527f796f7520686176652067726162626564000000000000000000000000000000006044820152606401610218565b336000908152600460205260409020600190819055600254900361035357600154604051339180156108fc02916000818181858888f19350505050158015610350573d6000803e3d6000fd5b50565b60035460ff16156103bf5760006002546001546103709190610442565b604051909150339082156108fc029083906000818181858888f193505050501580156103a0573d6000803e3d6000fd5b5080600160008282546103b3919061047d565b909155506103bf915050565b600280549060006103cf83610496565b9190505550565b6000602082840312156103e857600080fd5b813573ffffffffffffffffffffffffffffffffffffffff8116811461040c57600080fd5b9392505050565b7f4e487b7100000000000000000000000000000000000000000000000000000000600052601160045260246000fd5b600082610478577f4e487b7100000000000000000000000000000000000000000000000000000000600052601260045260246000fd5b500490565b8181038181111561049057610490610413565b92915050565b6000816104a5576104a5610413565b50600019019056fea264697066735822122092e38ecfff5247f5ffe842cfe77cd4f34bf960f2a46496cb94d0ed7fd516b7cd64736f6c63430008130033",
  "immutableReferences": {},
  "source": "// SPDX-License-Identifier: MIT\npragma solidity >=0.4.22 <0.9.0;\n\ncontract RedPackage {\n    // \n    address payable public xxx;\n    // \n    uint256 public totalAmount;\n    // \n    uint256 public count;\n    // \n    bool public isEqual;\n    mapping(address => uint256) public isGrabbed;\n    constructor(uint256 c, bool _isEqual) payable {\n        require(msg.value > 0, \"amount must >0\");\n        count = c;\n        xxx = payable(msg.sender);\n        isEqual = _isEqual;\n        totalAmount = msg.value;\n    }\n\n    function getBalance() public view returns (uint256) {\n        return address(this).balance;\n    }\n    // \n    function deposit() public payable {}\n\n    function getRedPacket() public {\n        require(count > 0, \"red packet is empty\");\n        require(totalAmount > 0, \"totalAmount must > 0\");\n        require(isGrabbed[msg.sender] == 0, \"you have grabbed\");\n        isGrabbed[msg.sender] = 1;\n        if (count == 1) {\n            payable(msg.sender).transfer(totalAmount);\n        } else {\n            // \n            if (isEqual) {\n                // \n                uint256 amount = totalAmount / count;\n                // \n                payable(msg.sender).transfer(amount);\n                totalAmount -= amount;\n            } else {\n                // \n            }\n            count--;\n        }\n    }\n}\n",
  "sourcePath": "/Users/limuran/Documents/solidty/web-wallet-truffe/contracts/RedPackage.sol",
  "compiler": {
    "name": "solc",
    "version": "0.8.19+commit.7dd6d404.Emscripten.clang"
  },
  "schemaVersion": "3.4.16",
  "updatedAt": "2025-09-04T16:02:13.894Z",
  "devdoc": {
    "kind": "dev",
    "methods": {},
    "version": 1
  },
  "userdoc": {
    "kind": "user",
    "methods": {},
    "version": 1
  }
}