{
  "contractName": "RedPackage",
  "abi": [
    {
      "inputs": [
        {
          "internalType": "uint256",
          "name": "c",
          "type": "uint256"
        },
        {
          "internalType": "bool",
          "name": "_isEqual",
          "type": "bool"
        }
      ],
      "stateMutability": "payable",
      "type": "constructor"
    },
    {
      "inputs": [],
      "name": "count",
      "outputs": [
        {
          "internalType": "uint256",
          "name": "",
          "type": "uint256"
        }
      ],
      "stateMutability": "view",
      "type": "function"
    },
    {
      "inputs": [],
      "name": "isEqual",
      "outputs": [
        {
          "internalType": "bool",
          "name": "",
          "type": "bool"
        }
      ],
      "stateMutability": "view",
      "type": "function"
    },
    {
      "inputs": [
        {
          "internalType": "address",
          "name": "",
          "type": "address"
        }
      ],
      "name": "isGrabbed",
      "outputs": [
        {
          "internalType": "uint256",
          "name": "",
          "type": "uint256"
        }
      ],
      "stateMutability": "view",
      "type": "function"
    },
    {
      "inputs": [],
      "name": "totalAmount",
      "outputs": [
        {
          "internalType": "uint256",
          "name": "",
          "type": "uint256"
        }
      ],
      "stateMutability": "view",
      "type": "function"
    },
    {
      "inputs": [],
      "name": "xxx",
      "outputs": [
        {
          "internalType": "address payable",
          "name": "",
          "type": "address"
        }
      ],
      "stateMutability": "view",
      "type": "function"
    },
    {
      "inputs": [],
      "name": "getBalance",
      "outputs": [
        {
          "internalType": "uint256",
          "name": "",
          "type": "uint256"
        }
      ],
      "stateMutability": "view",
      "type": "function"
    },
    {
      "inputs": [],
      "name": "deposit",
      "outputs": [],
      "stateMutability": "payable",
      "type": "function"
    },
    {
      "inputs": [],
      "name": "getRedPacket",
      "outputs": [],
      "stateMutability": "nonpayable",
      "type": "function"
    }
  ],
  "bytecode": "0x6080604052604051610a65380380610a658339818101604052810190610025919061014a565b60003411610068576040517f08c379a000000000000000000000000000000000000000000000000000000000815260040161005f906101e7565b60405180910390fd5b81600281905550336000806101000a81548173ffffffffffffffffffffffffffffffffffffffff021916908373ffffffffffffffffffffffffffffffffffffffff16021790555080600360006101000a81548160ff021916908315150217905550346001819055505050610207565b600080fd5b6000819050919050565b6100ef816100dc565b81146100fa57600080fd5b50565b60008151905061010c816100e6565b92915050565b60008115159050919050565b61012781610112565b811461013257600080fd5b50565b6000815190506101448161011e565b92915050565b60008060408385031215610161576101606100d7565b5b600061016f858286016100fd565b925050602061018085828601610135565b9150509250929050565b600082825260208201905092915050565b7f616d6f756e74206d757374203e30000000000000000000000000000000000000600082015250565b60006101d1600e8361018a565b91506101dc8261019b565b602082019050919050565b60006020820190508181036000830152610200816101c4565b9050919050565b61084f806102166000396000f3fe608060405260043610610098576000357c0100000000000000000000000000000000000000000000000000000000900480631c6d31f71161006b5780631c6d31f71461015b5780637829404614610186578063acbe84521461019d578063d0e30db0146101c857610098565b806306661abd1461009d5780630ec0afc9146100c857806312065fe0146101055780631a39d8ef14610130575b600080fd5b3480156100a957600080fd5b506100b26101d2565b6040516100bf91906104bb565b60405180910390f35b3480156100d457600080fd5b506100ef60048036038101906100ea9190610539565b6101d8565b6040516100fc91906104bb565b60405180910390f35b34801561011157600080fd5b5061011a6101f0565b60405161012791906104bb565b60405180910390f35b34801561013c57600080fd5b5061014561020f565b60405161015291906104bb565b60405180910390f35b34801561016757600080fd5b50610170610215565b60405161017d9190610587565b60405180910390f35b34801561019257600080fd5b5061019b610239565b005b3480156101a957600080fd5b506101b261048d565b6040516101bf91906105bd565b60405180910390f35b6101d06104a0565b005b60025481565b60046020528060005260406000206000915090505481565b60003073ffffffffffffffffffffffffffffffffffffffff1631905090565b60015481565b60008054906101000a900473ffffffffffffffffffffffffffffffffffffffff1681565b60006002541161027e576040517f08c379a000000000000000000000000000000000000000000000000000000000815260040161027590610635565b60405180910390fd5b6000600154116102c3576040517f08c379a00000000000000000000000000000000000000000000000000000000081526004016102ba906106a1565b60405180910390fd5b6000600460003373ffffffffffffffffffffffffffffffffffffffff1673ffffffffffffffffffffffffffffffffffffffff1681526020019081526020016000205414610345576040517f08c379a000000000000000000000000000000000000000000000000000000000815260040161033c9061070d565b60405180910390fd5b6001600460003373ffffffffffffffffffffffffffffffffffffffff1673ffffffffffffffffffffffffffffffffffffffff168152602001908152602001600020819055506001600254036103e2573373ffffffffffffffffffffffffffffffffffffffff166108fc6001549081150290604051600060405180830381858888f193505050501580156103dc573d6000803e3d6000fd5b5061048b565b600360009054906101000a900460ff1615610471576000600254600154610409919061078b565b90503373ffffffffffffffffffffffffffffffffffffffff166108fc829081150290604051600060405180830381858888f19350505050158015610451573d6000803e3d6000fd5b50806001600082825461046491906107bc565b9250508190555050610472565b5b60026000815480929190610485906107f0565b91905055505b565b600360009054906101000a900460ff1681565b565b6000819050919050565b6104b5816104a2565b82525050565b60006020820190506104d060008301846104ac565b92915050565b600080fd5b600073ffffffffffffffffffffffffffffffffffffffff82169050919050565b6000610506826104db565b9050919050565b610516816104fb565b811461052157600080fd5b50565b6000813590506105338161050d565b92915050565b60006020828403121561054f5761054e6104d6565b5b600061055d84828501610524565b91505092915050565b6000610571826104db565b9050919050565b61058181610566565b82525050565b600060208201905061059c6000830184610578565b92915050565b60008115159050919050565b6105b7816105a2565b82525050565b60006020820190506105d260008301846105ae565b92915050565b600082825260208201905092915050565b7f726564207061636b657420697320656d70747900000000000000000000000000600082015250565b600061061f6013836105d8565b915061062a826105e9565b602082019050919050565b6000602082019050818103600083015261064e81610612565b9050919050565b7f746f74616c416d6f756e74206d757374203e2030000000000000000000000000600082015250565b600061068b6014836105d8565b915061069682610655565b602082019050919050565b600060208201905081810360008301526106ba8161067e565b9050919050565b7f796f752068617665206772616262656400000000000000000000000000000000600082015250565b60006106f76010836105d8565b9150610702826106c1565b602082019050919050565b60006020820190508181036000830152610726816106ea565b9050919050565b7f4e487b7100000000000000000000000000000000000000000000000000000000600052601260045260246000fd5b7f4e487b7100000000000000000000000000000000000000000000000000000000600052601160045260246000fd5b6000610796826104a2565b91506107a1836104a2565b9250826107b1576107b061072d565b5b828204905092915050565b60006107c7826104a2565b91506107d2836104a2565b92508282039050818111156107ea576107e961075c565b5b92915050565b60006107fb826104a2565b91506000820361080e5761080d61075c565b5b60018203905091905056fea26469706673582212204f4507d4376084ae272e4295e3afd926f464954c33406f4e8946f3d60947e4a664736f6c63430008150033",
  "immutableReferences": {},
  "source": "// SPDX-License-Identifier: MIT\npragma solidity >=0.4.22 <0.9.0;\n\ncontract RedPackage {\n    // \n    address payable public xxx;\n    // \n    uint256 public totalAmount;\n    // \n    uint256 public count;\n    // \n    bool public isEqual;\n    mapping(address => uint256) public isGrabbed;\n    constructor(uint256 c, bool _isEqual) payable {\n        require(msg.value > 0, \"amount must >0\");\n        count = c;\n        xxx = payable(msg.sender);\n        isEqual = _isEqual;\n        totalAmount = msg.value;\n    }\n\n    function getBalance() public view returns (uint256) {\n        return address(this).balance;\n    }\n    // \n    function deposit() public payable {}\n\n    function getRedPacket() public {\n        require(count > 0, \"red packet is empty\");\n        require(totalAmount > 0, \"totalAmount must > 0\");\n        require(isGrabbed[msg.sender] == 0, \"you have grabbed\");\n        isGrabbed[msg.sender] = 1;\n        if (count == 1) {\n            payable(msg.sender).transfer(totalAmount);\n        } else {\n            // \n            if (isEqual) {\n                // \n                uint256 amount = totalAmount / count;\n                // \n                payable(msg.sender).transfer(amount);\n                totalAmount -= amount;\n            } else {\n                // \n            }\n            count--;\n        }\n    }\n}\n",
  "sourcePath": "/Users/limuran/Documents/solidty/web-wallet-truffe/contracts/RedPackage.sol",
  "compiler": {
    "name": "solc",
    "version": "0.8.21+commit.d9974bed.Emscripten.clang"
  },
  "schemaVersion": "3.4.16",
  "updatedAt": "2025-09-04T15:02:56.992Z",
  "devdoc": {
    "kind": "dev",
    "methods": {},
    "version": 1
  },
  "userdoc": {
    "kind": "user",
    "methods": {},
    "version": 1
  }
}